{
  "contractName": "SaleFactory",
  "abi": [
    {
      "inputs": [],
      "stateMutability": "nonpayable",
      "type": "constructor"
    },
    {
      "anonymous": false,
      "inputs": [
        {
          "indexed": true,
          "internalType": "address",
          "name": "_saleContract",
          "type": "address"
        },
        {
          "indexed": true,
          "internalType": "address",
          "name": "_owner",
          "type": "address"
        },
        {
          "indexed": false,
          "internalType": "uint256",
          "name": "_workId",
          "type": "uint256"
        }
      ],
      "name": "NewSale",
      "type": "event"
    },
    {
      "anonymous": false,
      "inputs": [
        {
          "indexed": true,
          "internalType": "address",
          "name": "previousOwner",
          "type": "address"
        },
        {
          "indexed": true,
          "internalType": "address",
          "name": "newOwner",
          "type": "address"
        }
      ],
      "name": "OwnershipTransferred",
      "type": "event"
    },
    {
      "inputs": [],
      "name": "admin",
      "outputs": [
        {
          "internalType": "address",
          "name": "",
          "type": "address"
        }
      ],
      "stateMutability": "view",
      "type": "function",
      "constant": true
    },
    {
      "inputs": [],
      "name": "owner",
      "outputs": [
        {
          "internalType": "address",
          "name": "",
          "type": "address"
        }
      ],
      "stateMutability": "view",
      "type": "function",
      "constant": true
    },
    {
      "inputs": [],
      "name": "renounceOwnership",
      "outputs": [],
      "stateMutability": "nonpayable",
      "type": "function"
    },
    {
      "inputs": [
        {
          "internalType": "uint256",
          "name": "",
          "type": "uint256"
        }
      ],
      "name": "sales",
      "outputs": [
        {
          "internalType": "address",
          "name": "",
          "type": "address"
        }
      ],
      "stateMutability": "view",
      "type": "function",
      "constant": true
    },
    {
      "inputs": [
        {
          "internalType": "address",
          "name": "newOwner",
          "type": "address"
        }
      ],
      "name": "transferOwnership",
      "outputs": [],
      "stateMutability": "nonpayable",
      "type": "function"
    },
    {
      "inputs": [
        {
          "internalType": "uint256",
          "name": "itemId",
          "type": "uint256"
        },
        {
          "internalType": "uint256",
          "name": "purchasePrice",
          "type": "uint256"
        },
        {
          "internalType": "uint256",
          "name": "startTime",
          "type": "uint256"
        },
        {
          "internalType": "uint256",
          "name": "endTime",
          "type": "uint256"
        },
        {
          "internalType": "address",
          "name": "currencyAddress",
          "type": "address"
        },
        {
          "internalType": "address",
          "name": "nftAddress",
          "type": "address"
        }
      ],
      "name": "createSale",
      "outputs": [
        {
          "internalType": "address",
          "name": "",
          "type": "address"
        }
      ],
      "stateMutability": "nonpayable",
      "type": "function"
    },
    {
      "inputs": [],
      "name": "allSales",
      "outputs": [
        {
          "internalType": "address[]",
          "name": "",
          "type": "address[]"
        }
      ],
      "stateMutability": "view",
      "type": "function",
      "constant": true
    }
  ],
  "bytecode": "0x608060405234801561001057600080fd5b5061002d61002261007360201b60201c565b61007b60201b60201c565b33600260006101000a81548173ffffffffffffffffffffffffffffffffffffffff021916908373ffffffffffffffffffffffffffffffffffffffff16021790555061013f565b600033905090565b60008060009054906101000a900473ffffffffffffffffffffffffffffffffffffffff169050816000806101000a81548173ffffffffffffffffffffffffffffffffffffffff021916908373ffffffffffffffffffffffffffffffffffffffff1602179055508173ffffffffffffffffffffffffffffffffffffffff168173ffffffffffffffffffffffffffffffffffffffff167f8be0079c531659141344cd1fd0a4f28419497f9722a3daafe3b4186f6b6457e060405160405180910390a35050565b611dc98061014e6000396000f3fe60806040523480156200001157600080fd5b5060043610620000885760003560e01c80638da5cb5b11620000635780638da5cb5b14620000f1578063b5f522f71462000113578063f2fde38b1462000149578063f851a44014620001695762000088565b806368f3d87c146200008d5780636eafecba14620000c3578063715018a614620000e5575b600080fd5b620000ab6004803603810190620000a591906200073f565b6200018b565b604051620000ba9190620007ec565b60405180910390f35b620000cd620002e8565b604051620000dc9190620008d7565b60405180910390f35b620000ef62000378565b005b620000fb62000409565b6040516200010a9190620007ec565b60405180910390f35b6200013160048036038101906200012b9190620008fb565b62000432565b604051620001409190620007ec565b60405180910390f35b6200016760048036038101906200016191906200092d565b62000472565b005b6200017362000576565b604051620001829190620007ec565b60405180910390f35b600080600260009054906101000a900473ffffffffffffffffffffffffffffffffffffffff163389868a8a8a89604051620001c6906200068c565b620001d998979695949392919062000970565b604051809103906000f080158015620001f6573d6000803e3d6000fd5b5090506003819080600181540180825580915050600190039060005260206000200160009091909190916101000a81548173ffffffffffffffffffffffffffffffffffffffff021916908373ffffffffffffffffffffffffffffffffffffffff1602179055503373ffffffffffffffffffffffffffffffffffffffff168173ffffffffffffffffffffffffffffffffffffffff167f874bdb649427dfeceaa7f10beee59a823d3e45a6814f50bc18ba2adefd058e48620002b760016200059c565b604051620002c69190620009fe565b60405180910390a3620002da6001620005aa565b809150509695505050505050565b606060038054806020026020016040519081016040528092919081815260200182805480156200036e57602002820191906000526020600020905b8160009054906101000a900473ffffffffffffffffffffffffffffffffffffffff1673ffffffffffffffffffffffffffffffffffffffff168152602001906001019080831162000323575b5050505050905090565b62000382620005c0565b73ffffffffffffffffffffffffffffffffffffffff16620003a262000409565b73ffffffffffffffffffffffffffffffffffffffff1614620003fb576040517f08c379a0000000000000000000000000000000000000000000000000000000008152600401620003f29062000a7c565b60405180910390fd5b620004076000620005c8565b565b60008060009054906101000a900473ffffffffffffffffffffffffffffffffffffffff16905090565b600381815481106200044357600080fd5b906000526020600020016000915054906101000a900473ffffffffffffffffffffffffffffffffffffffff1681565b6200047c620005c0565b73ffffffffffffffffffffffffffffffffffffffff166200049c62000409565b73ffffffffffffffffffffffffffffffffffffffff1614620004f5576040517f08c379a0000000000000000000000000000000000000000000000000000000008152600401620004ec9062000a7c565b60405180910390fd5b600073ffffffffffffffffffffffffffffffffffffffff168173ffffffffffffffffffffffffffffffffffffffff16141562000568576040517f08c379a00000000000000000000000000000000000000000000000000000000081526004016200055f9062000b14565b60405180910390fd5b6200057381620005c8565b50565b600260009054906101000a900473ffffffffffffffffffffffffffffffffffffffff1681565b600081600001549050919050565b6001816000016000828254019250508190555050565b600033905090565b60008060009054906101000a900473ffffffffffffffffffffffffffffffffffffffff169050816000806101000a81548173ffffffffffffffffffffffffffffffffffffffff021916908373ffffffffffffffffffffffffffffffffffffffff1602179055508173ffffffffffffffffffffffffffffffffffffffff168173ffffffffffffffffffffffffffffffffffffffff167f8be0079c531659141344cd1fd0a4f28419497f9722a3daafe3b4186f6b6457e060405160405180910390a35050565b61125d8062000b3783390190565b600080fd5b6000819050919050565b620006b4816200069f565b8114620006c057600080fd5b50565b600081359050620006d481620006a9565b92915050565b600073ffffffffffffffffffffffffffffffffffffffff82169050919050565b60006200070782620006da565b9050919050565b6200071981620006fa565b81146200072557600080fd5b50565b60008135905062000739816200070e565b92915050565b60008060008060008060c087890312156200075f576200075e6200069a565b5b60006200076f89828a01620006c3565b96505060206200078289828a01620006c3565b95505060406200079589828a01620006c3565b9450506060620007a889828a01620006c3565b9350506080620007bb89828a0162000728565b92505060a0620007ce89828a0162000728565b9150509295509295509295565b620007e681620006fa565b82525050565b6000602082019050620008036000830184620007db565b92915050565b600081519050919050565b600082825260208201905092915050565b6000819050602082019050919050565b6200084081620006fa565b82525050565b600062000854838362000835565b60208301905092915050565b6000602082019050919050565b60006200087a8262000809565b62000886818562000814565b9350620008938362000825565b8060005b83811015620008ca578151620008ae888262000846565b9750620008bb8362000860565b92505060018101905062000897565b5085935050505092915050565b60006020820190508181036000830152620008f381846200086d565b905092915050565b6000602082840312156200091457620009136200069a565b5b60006200092484828501620006c3565b91505092915050565b6000602082840312156200094657620009456200069a565b5b6000620009568482850162000728565b91505092915050565b6200096a816200069f565b82525050565b60006101008201905062000988600083018b620007db565b62000997602083018a620007db565b620009a660408301896200095f565b620009b56060830188620007db565b620009c460808301876200095f565b620009d360a08301866200095f565b620009e260c08301856200095f565b620009f160e0830184620007db565b9998505050505050505050565b600060208201905062000a1560008301846200095f565b92915050565b600082825260208201905092915050565b7f4f776e61626c653a2063616c6c6572206973206e6f7420746865206f776e6572600082015250565b600062000a6460208362000a1b565b915062000a718262000a2c565b602082019050919050565b6000602082019050818103600083015262000a978162000a55565b9050919050565b7f4f776e61626c653a206e6577206f776e657220697320746865207a65726f206160008201527f6464726573730000000000000000000000000000000000000000000000000000602082015250565b600062000afc60268362000a1b565b915062000b098262000a9e565b604082019050919050565b6000602082019050818103600083015262000b2f8162000aed565b905091905056fe60806040523480156200001157600080fd5b506040516200125d3803806200125d8339818101604052810190620000379190620002a7565b87600360006101000a81548173ffffffffffffffffffffffffffffffffffffffff021916908373ffffffffffffffffffffffffffffffffffffffff16021790555086600160006101000a81548173ffffffffffffffffffffffffffffffffffffffff021916908373ffffffffffffffffffffffffffffffffffffffff1602179055508560078190555084600860006101000a81548173ffffffffffffffffffffffffffffffffffffffff021916908373ffffffffffffffffffffffffffffffffffffffff16021790555083600681905550826004819055508160058190555080600960006101000a81548173ffffffffffffffffffffffffffffffffffffffff021916908373ffffffffffffffffffffffffffffffffffffffff1602179055506000600960146101000a81548160ff02191690831515021790555084600b60006101000a81548173ffffffffffffffffffffffffffffffffffffffff021916908373ffffffffffffffffffffffffffffffffffffffff16021790555080600c60006101000a81548173ffffffffffffffffffffffffffffffffffffffff021916908373ffffffffffffffffffffffffffffffffffffffff160217905550505050505050505062000370565b600080fd5b600073ffffffffffffffffffffffffffffffffffffffff82169050919050565b6000620002348262000207565b9050919050565b620002468162000227565b81146200025257600080fd5b50565b60008151905062000266816200023b565b92915050565b6000819050919050565b62000281816200026c565b81146200028d57600080fd5b50565b600081519050620002a18162000276565b92915050565b600080600080600080600080610100898b031215620002cb57620002ca62000202565b5b6000620002db8b828c0162000255565b9850506020620002ee8b828c0162000255565b9750506040620003018b828c0162000290565b9650506060620003148b828c0162000255565b9550506080620003278b828c0162000290565b94505060a06200033a8b828c0162000290565b93505060c06200034d8b828c0162000290565b92505060e0620003608b828c0162000255565b9150509295985092959890939650565b610edd80620003806000396000f3fe608060405234801561001057600080fd5b50600436106101005760003560e01c8063903e329c11610097578063db83694c11610066578063db83694c14610245578063defd6c5f14610268578063ed338ff114610286578063ef0a230e146102a457610100565b8063903e329c146101e1578063a64258c8146101eb578063a8f6c91314610209578063c7e284b81461022757610100565b80631cbaee2d116100d35780631cbaee2d1461017d5780635bf8633a1461019b57806364edfbf0146101b95780637150d8ae146101c357610100565b806308551a531461010557806312fa6feb1461012357806317d70f7c146101415780631c1cb3231461015f575b600080fd5b61010d6102c2565b60405161011a919061093d565b60405180910390f35b61012b6102e8565b6040516101389190610973565b60405180910390f35b6101496102fb565b60405161015691906109a7565b60405180910390f35b610167610301565b604051610174919061093d565b60405180910390f35b610185610327565b60405161019291906109a7565b60405180910390f35b6101a361032d565b6040516101b0919061093d565b60405180910390f35b6101c1610353565b005b6101cb610605565b6040516101d8919061093d565b60405180910390f35b6101e961062b565b005b6101f36107fd565b60405161020091906109a7565b60405180910390f35b610211610803565b60405161021e9190610a21565b60405180910390f35b61022f610829565b60405161023c9190610a55565b60405180910390f35b61024d61083e565b60405161025f96959493929190610a70565b60405180910390f35b6102706108ad565b60405161027d91906109a7565b60405180910390f35b61028e6108b3565b60405161029b91906109a7565b60405180910390f35b6102ac6108b9565b6040516102b99190610af2565b60405180910390f35b600160009054906101000a900473ffffffffffffffffffffffffffffffffffffffff1681565b600960149054906101000a900460ff1681565b60075481565b600860009054906101000a900473ffffffffffffffffffffffffffffffffffffffff1681565b60045481565b600960009054906101000a900473ffffffffffffffffffffffffffffffffffffffff1681565b6000426005546103639190610b3c565b101561036e57600080fd5b6004544211156103b3576040517f08c379a00000000000000000000000000000000000000000000000000000000081526004016103aa90610bcd565b60405180910390fd5b600160009054906101000a900473ffffffffffffffffffffffffffffffffffffffff1673ffffffffffffffffffffffffffffffffffffffff163373ffffffffffffffffffffffffffffffffffffffff161415610444576040517f08c379a000000000000000000000000000000000000000000000000000000000815260040161043b90610c5f565b60405180910390fd5b600b60009054906101000a900473ffffffffffffffffffffffffffffffffffffffff1673ffffffffffffffffffffffffffffffffffffffff166323b872dd33600160009054906101000a900473ffffffffffffffffffffffffffffffffffffffff166006546040518463ffffffff1660e01b81526004016104c793929190610c7f565b6020604051808303816000875af11580156104e6573d6000803e3d6000fd5b505050506040513d601f19601f8201168201806040525081019061050a9190610ce7565b50600c60009054906101000a900473ffffffffffffffffffffffffffffffffffffffff1673ffffffffffffffffffffffffffffffffffffffff166342842e0e600160009054906101000a900473ffffffffffffffffffffffffffffffffffffffff16336007546040518463ffffffff1660e01b815260040161058e93929190610c7f565b600060405180830381600087803b1580156105a857600080fd5b505af11580156105bc573d6000803e3d6000fd5b505050506105c86108df565b7f349f939aaa1895cee67485b264474f0d2a1aac01083917b8ea9f96e4036cbb27336006546040516105fb929190610d14565b60405180910390a1565b600260009054906101000a900473ffffffffffffffffffffffffffffffffffffffff1681565b600160009054906101000a900473ffffffffffffffffffffffffffffffffffffffff1673ffffffffffffffffffffffffffffffffffffffff163373ffffffffffffffffffffffffffffffffffffffff16146106bb576040517f08c379a00000000000000000000000000000000000000000000000000000000081526004016106b290610d89565b60405180910390fd5b6000426005546106cb9190610b3c565b1161070b576040517f08c379a000000000000000000000000000000000000000000000000000000000815260040161070290610df5565b60405180910390fd5b600160009054906101000a900473ffffffffffffffffffffffffffffffffffffffff1673ffffffffffffffffffffffffffffffffffffffff163373ffffffffffffffffffffffffffffffffffffffff1614806107b45750600360009054906101000a900473ffffffffffffffffffffffffffffffffffffffff1673ffffffffffffffffffffffffffffffffffffffff163373ffffffffffffffffffffffffffffffffffffffff16145b6107f3576040517f08c379a00000000000000000000000000000000000000000000000000000000081526004016107ea90610e87565b60405180910390fd5b6107fb6108df565b565b600a5481565b600b60009054906101000a900473ffffffffffffffffffffffffffffffffffffffff1681565b6000426005546108399190610b3c565b905090565b600080600080600080600454600554600654600754600860009054906101000a900473ffffffffffffffffffffffffffffffffffffffff16600960009054906101000a900473ffffffffffffffffffffffffffffffffffffffff16955095509550955095509550909192939495565b60065481565b60055481565b600c60009054906101000a900473ffffffffffffffffffffffffffffffffffffffff1681565b6001600960146101000a81548160ff021916908315150217905550565b600073ffffffffffffffffffffffffffffffffffffffff82169050919050565b6000610927826108fc565b9050919050565b6109378161091c565b82525050565b6000602082019050610952600083018461092e565b92915050565b60008115159050919050565b61096d81610958565b82525050565b60006020820190506109886000830184610964565b92915050565b6000819050919050565b6109a18161098e565b82525050565b60006020820190506109bc6000830184610998565b92915050565b6000819050919050565b60006109e76109e26109dd846108fc565b6109c2565b6108fc565b9050919050565b60006109f9826109cc565b9050919050565b6000610a0b826109ee565b9050919050565b610a1b81610a00565b82525050565b6000602082019050610a366000830184610a12565b92915050565b6000819050919050565b610a4f81610a3c565b82525050565b6000602082019050610a6a6000830184610a46565b92915050565b600060c082019050610a856000830189610998565b610a926020830188610998565b610a9f6040830187610998565b610aac6060830186610998565b610ab9608083018561092e565b610ac660a083018461092e565b979650505050505050565b6000610adc826109ee565b9050919050565b610aec81610ad1565b82525050565b6000602082019050610b076000830184610ae3565b92915050565b7f4e487b7100000000000000000000000000000000000000000000000000000000600052601160045260246000fd5b6000610b478261098e565b9150610b528361098e565b925082821015610b6557610b64610b0d565b5b828203905092915050565b600082825260208201905092915050565b7f53616c653a20546869732073616c65206973206e6f7420737461727465642e00600082015250565b6000610bb7601f83610b70565b9150610bc282610b81565b602082019050919050565b60006020820190508181036000830152610be681610baa565b9050919050565b7f53616c653a20596f7520636f756c646e2774207075726368617365207468697360008201527f206974656d206265636175736520796f752061726520612073656c6c65722e00602082015250565b6000610c49603f83610b70565b9150610c5482610bed565b604082019050919050565b60006020820190508181036000830152610c7881610c3c565b9050919050565b6000606082019050610c94600083018661092e565b610ca1602083018561092e565b610cae6040830184610998565b949350505050565b600080fd5b610cc481610958565b8114610ccf57600080fd5b50565b600081519050610ce181610cbb565b92915050565b600060208284031215610cfd57610cfc610cb6565b5b6000610d0b84828501610cd2565b91505092915050565b6000604082019050610d29600083018561092e565b610d366020830184610998565b9392505050565b7f53616c653a20596f7520617265206e6f742073656c6c65722e00000000000000600082015250565b6000610d73601983610b70565b9150610d7e82610d3d565b602082019050919050565b60006020820190508181036000830152610da281610d66565b9050919050565b7f53616c653a2053616c6520697320616c726561647920656e6465642e00000000600082015250565b6000610ddf601c83610b70565b9150610dea82610da9565b602082019050919050565b60006020820190508181036000830152610e0e81610dd2565b9050919050565b7f53616c653a20596f7520617265206e6f742073656c6c6572206f722061646d6960008201527f6e6973747261746f722e00000000000000000000000000000000000000000000602082015250565b6000610e71602a83610b70565b9150610e7c82610e15565b604082019050919050565b60006020820190508181036000830152610ea081610e64565b905091905056fea2646970667358221220a876184a070c95b4ff05dc33d1fe973507fc87f0f0b379ac64d3ab3c4e4d335764736f6c634300080a0033a2646970667358221220c68c5a740b69020f176a45283580624e0717ffa17458e69de7422633409d818a64736f6c634300080a0033",
  "immutableReferences": {},
  "source": "// SPDX-License-Identifier: MIT\r\npragma solidity ^0.8.4;\r\n\r\nimport \"./access/Ownable.sol\";\r\nimport \"./token/ERC20/ERC20.sol\";\r\nimport \"./token/ERC721/ERC721.sol\";\r\nimport \"@openzeppelin/contracts/utils/Counters.sol\";\r\n\r\n// import \"./utils/Counters.sol\";\r\n\r\n/**\r\n * PJT  - Req.1-SC1 SaleFactory \r\n *    ,      .\r\n */\r\n//  Ownable   ownable constructor \r\ncontract SaleFactory is Ownable {\r\n    using Counters for Counters.Counter;\r\n    Counters.Counter private _workId;\r\n\r\n    address public admin;\r\n    address[] public sales;\r\n\r\n    // Newsale    \r\n    // event  indexed,  web3.js filter      .\r\n    event NewSale(\r\n        address indexed _saleContract,\r\n        address indexed _owner,\r\n        uint256 _workId\r\n    );\r\n\r\n    constructor() {\r\n        admin = msg.sender;\r\n    }\r\n\r\n    /**\r\n     * @dev   .\r\n     */\r\n    function createSale(\r\n        uint256 itemId,\r\n        // uint256 minPrice,\r\n        uint256 purchasePrice,\r\n        uint256 startTime,\r\n        uint256 endTime,\r\n        address currencyAddress,\r\n        address nftAddress\r\n    ) public returns (address) {\r\n        // TODO\r\n        //       \r\n        // 4-1).\r\n        Sale sale = new Sale(\r\n            //   Sale  constructor   \r\n            //    \r\n            admin,\r\n            msg.sender,\r\n            itemId,\r\n            // minPrice,\r\n            //\r\n            currencyAddress,\r\n            purchasePrice,\r\n            startTime,\r\n            endTime,\r\n            //\r\n            nftAddress\r\n            // _workId.current(),\r\n            // address(this)\r\n        );\r\n        // setApprovalForAll(address(this), true);\r\n        // ERC721.setApprovalForAll(address(sale), true);\r\n        // erc721Constract.setApprovalForAll(msg.sender, address(sale), true);\r\n\r\n        // 4-2).     sales .\r\n        // sales[_workId.current()] = address(this);\r\n        sales.push(address(sale));\r\n        // 4-3).  sale   .\r\n        //     \r\n        emit NewSale(address(sale), msg.sender, _workId.current());\r\n        _workId.increment();\r\n\r\n        return address(sale);\r\n    }\r\n\r\n    function allSales() public view returns (address[] memory) {\r\n        return sales;\r\n    }\r\n}\r\n\r\n/**\r\n *  PJT  - Req.1-SC2) Sale \r\n */\r\ncontract Sale {\r\n    SaleFactory salefactory;\r\n    //    \r\n    // \r\n    address public seller;\r\n    // \r\n    address public buyer;\r\n    // \r\n    address admin;\r\n    uint256 public saleStartTime;\r\n    uint256 public saleEndTime;\r\n    // uint256 public minPrice;\r\n    // 6 \r\n    uint256 public purchasePrice;\r\n    //  nft ())\r\n    uint256 public tokenId;\r\n    //   erc-20 \r\n    address public currencyAddress;\r\n    //  nft (nft)\r\n    address public nftAddress;\r\n    bool public ended;\r\n    uint256 public workId;\r\n\r\n    //    \r\n    // address public highestBidder;\r\n    // uint256 public highestBid;\r\n\r\n    IERC20 public erc20Contract;\r\n    IERC721 public erc721Constract;\r\n\r\n    event HighestBidIncereased(address bidder, uint256 amount);\r\n    event SaleEnded(address winner, uint256 amount);\r\n\r\n    constructor(\r\n        address _admin,\r\n        address _seller,\r\n        uint256 _tokenId,\r\n        // uint256 _minPrice,\r\n        address _currencyAddress,\r\n        uint256 _purchasePrice,\r\n        uint256 startTime,\r\n        uint256 endTime,\r\n        address _nftAddress // uint256 _workId, // address _saleFactoryAddress\r\n    ) {\r\n        // require(_minPrice > 0);\r\n        admin = _admin;\r\n        seller = _seller;\r\n        tokenId = _tokenId;\r\n        // minPrice = _minPrice;\r\n        currencyAddress = _currencyAddress;\r\n        purchasePrice = _purchasePrice;\r\n        saleStartTime = startTime;\r\n        saleEndTime = endTime;\r\n        nftAddress = _nftAddress;\r\n        ended = false;\r\n        erc20Contract = IERC20(_currencyAddress);\r\n        erc721Constract = IERC721(_nftAddress);\r\n        // workId = _workId;\r\n        // saleFactoryAddress = _saleFactoryAddress;\r\n        // salefactory = SaleFactory(_saleFactoryAddress);\r\n\r\n        // NFT  \r\n        // erc721Constract.approve(address(this), tokenId);\r\n        //   .\r\n        // erc721Constract.transferFrom(seller, address(this), tokenId);\r\n    }\r\n\r\n    // function bid(uint256 bid_amount) public onlyAfterStart onlyUserPermissioned {\r\n    //     // TODO\r\n    //     require(msg.sender != seller, \"Sale: You couldn't be a bidder because you are a seller.\");\r\n    //     require(bid_amount >= minPrice, \"Sale: You should pay more than minPrice\");\r\n    //     require(bid_amount > highestBid, \"Sale: You should pay more than highestBid\");\r\n    //     require(bid_amount <= purchasePrice, \"Sale: You should pay less than buynow's price\");\r\n    //     highestBid = bid_amount;\r\n    //     highestBidder = msg.sender;\r\n    //     //     seller bid_amount \r\n    //     erc20Contract.approve(seller, bid_amount);\r\n    //     // transferOwnership(msg.sender)\r\n    //     emit HighestBidIncereased(msg.sender, bid_amount);\r\n\r\n    //     //   bid     \r\n    //     erc20Contract.transfer(seller, bid_amount);\r\n\r\n    // }\r\n\r\n    // modifier onlyAfterStart \r\n    function purchase() public onlyAfterStart {\r\n        // function purchase() public onlyAfterStart onlyUserPermissioned payable {\r\n        // TODO\r\n        // 5- \r\n        //    \r\n        require(\r\n            msg.sender != seller,\r\n            \"Sale: You couldn't purchase this item because you are a seller.\"\r\n        );\r\n        //  Sale    \r\n        //    \r\n        //   \r\n\r\n        //   Sale    ERC-20      \r\n        // 5-1)      \r\n        // 5-2)  ERC-20     .\r\n        //      \r\n        // uint256 nowpayable = _getCurrencyAmount();\r\n        // require(purchasePrice <= nowpayable);\r\n\r\n        //     seller bid_amount  \r\n        // erc20Contract.approve(address(this), purchasePrice);\r\n        //  \r\n\r\n        erc20Contract.transferFrom(msg.sender, seller, purchasePrice);\r\n\r\n        // 5-3) NFT   \r\n        // NFT   APPROVE\r\n        //\r\n        // erc721Constract.approve(msg.sender, tokenId);\r\n        erc721Constract.safeTransferFrom(seller, msg.sender, tokenId);\r\n\r\n        // 5-4)       .\r\n        //  \r\n        _end();\r\n        //  \r\n        // buyer = msg.sender;\r\n        emit SaleEnded(msg.sender, purchasePrice);\r\n    }\r\n\r\n    // function confirmItem() public {\r\n    // //     // TODO\r\n    //     require(saleEndTime <= block.timestamp, \"Sale: The auction is not ended yet.\");\r\n    //     require(msg.sender == highestBidder, \"Sale: You're are not a highest bidder.\");\r\n\r\n    //     // 6-1)    .\r\n    //     erc20Contract.transferFrom(highestBidder, seller, highestBid);\r\n    //     // 6-2) NFT   .\r\n    //     erc721Constract.safeTransferFrom(seller, highestBidder, tokenId);\r\n    //     // 6-3)      .\r\n    //     _end();\r\n    //     buyer = msg.sender;\r\n    // }\r\n\r\n    // //     \r\n    // modifier onlyseller \r\n    function cancelSales() public onlySeller {\r\n        //     // TODO\r\n        // 7 \r\n        //   \r\n        require(\r\n            saleEndTime - block.timestamp > 0,\r\n            \"Sale: Sale is already ended.\"\r\n        );\r\n        //      \r\n        require(\r\n            msg.sender == seller || msg.sender == admin,\r\n            \"Sale: You are not seller or administrator.\"\r\n        );\r\n        // 7-1)  .\r\n        // erc20Contract.transferFrom(seller, highestBidder, highestBid);\r\n        //  7-2)    .\r\n        // erc721Constract.setApprovalForAll(msg.sender, address(this), false);\r\n        // erc721Constract.approve(seller, tokenId);\r\n        // erc721Constract.safeTransferFrom(address(this), msg.sender, tokenId);\r\n        // erc721Constract.safeTransferFrom(address(this), seller, tokenId);\r\n        // erc721Constract.safeTransferFrom(highestBidder, seller, tokenId);\r\n        // 7-3)     .\r\n        //  \r\n        // sales  \r\n        // delete salefactory.allSales()[workId];\r\n        _end();\r\n    }\r\n\r\n    // function delete() public {\r\n    // require(msg.sender == owner, \"\")\r\n    // }\r\n\r\n    function getTimeLeft() public view returns (int256) {\r\n        return (int256)(saleEndTime - block.timestamp);\r\n    }\r\n\r\n    function getSaleInfo()\r\n        public\r\n        view\r\n        returns (\r\n            uint256,\r\n            uint256,\r\n            // uint256,\r\n            uint256,\r\n            uint256,\r\n            // address,\r\n            // uint256,\r\n            address,\r\n            address\r\n        )\r\n    {\r\n        return (\r\n            saleStartTime,\r\n            saleEndTime,\r\n            // minPrice,\r\n            purchasePrice,\r\n            tokenId,\r\n            // highestBidder,\r\n            // highestBid,\r\n            currencyAddress,\r\n            nftAddress\r\n        );\r\n    }\r\n\r\n    // function getHighestBid() public view returns(uint256){\r\n    //     return highestBid;\r\n    // }\r\n\r\n    // internal  private     _  .\r\n    function _end() internal {\r\n        ended = true;\r\n    }\r\n\r\n    function _getCurrencyAmount() private view returns (uint256) {\r\n        return erc20Contract.balanceOf(msg.sender);\r\n    }\r\n\r\n    // modifier       .\r\n    modifier onlySeller() {\r\n        require(msg.sender == seller, \"Sale: You are not seller.\");\r\n        //    _;\r\n        _;\r\n    }\r\n\r\n    modifier onlyAfterStart() {\r\n        require(saleEndTime - block.timestamp >= 0);\r\n        require(block.timestamp <= saleStartTime, \"Sale: This sale is not started.\");\r\n        _;\r\n    }\r\n\r\n    // modifier onlyUserPermissioned() {\r\n    //     require(buyer !=address(0), \"Sale: This Buyer is not found.\");\r\n    //     // require(erc20Contract.approve(seller, purchasePrice), \"Sale:This Contract is not allowed\");\r\n    //     _;\r\n    // }\r\n}\r\n",
  "sourcePath": "C:\\Users\\SSAFY\\Desktop\\SSAFY\\2\\\\S06P22E205\\UNIQUE\\frontend\\smart-contracts\\contracts\\SaleFactory.sol",
  "compiler": {
    "name": "solc",
    "version": "0.8.10+commit.fc410830.Emscripten.clang"
  },
  "schemaVersion": "3.4.6",
  "updatedAt": "2022-04-06T16:02:52.221Z",
  "networkType": "ethereum",
  "devdoc": {
    "kind": "dev",
    "methods": {
      "createSale(uint256,uint256,uint256,uint256,address,address)": {
        "details": "  ."
      },
      "owner()": {
        "details": "Returns the address of the current owner."
      },
      "renounceOwnership()": {
        "details": "Leaves the contract without owner. It will not be possible to call `onlyOwner` functions anymore. Can only be called by the current owner. NOTE: Renouncing ownership will leave the contract without an owner, thereby removing any functionality that is only available to the owner."
      },
      "transferOwnership(address)": {
        "details": "Transfers ownership of the contract to a new account (`newOwner`). Can only be called by the current owner."
      }
    },
    "version": 1
  },
  "userdoc": {
    "kind": "user",
    "methods": {},
    "notice": "PJT  - Req.1-SC1 SaleFactory     ,      .",
    "version": 1
  }
}