{
  "contractName": "SsafyNFT",
  "abi": [
    {
      "inputs": [],
      "stateMutability": "nonpayable",
      "type": "constructor"
    },
    {
      "anonymous": false,
      "inputs": [
        {
          "indexed": true,
          "internalType": "address",
          "name": "owner",
          "type": "address"
        },
        {
          "indexed": true,
          "internalType": "address",
          "name": "approved",
          "type": "address"
        },
        {
          "indexed": true,
          "internalType": "uint256",
          "name": "tokenId",
          "type": "uint256"
        }
      ],
      "name": "Approval",
      "type": "event"
    },
    {
      "anonymous": false,
      "inputs": [
        {
          "indexed": true,
          "internalType": "address",
          "name": "owner",
          "type": "address"
        },
        {
          "indexed": true,
          "internalType": "address",
          "name": "operator",
          "type": "address"
        },
        {
          "indexed": false,
          "internalType": "bool",
          "name": "approved",
          "type": "bool"
        }
      ],
      "name": "ApprovalForAll",
      "type": "event"
    },
    {
      "anonymous": false,
      "inputs": [
        {
          "indexed": true,
          "internalType": "address",
          "name": "from",
          "type": "address"
        },
        {
          "indexed": true,
          "internalType": "address",
          "name": "to",
          "type": "address"
        },
        {
          "indexed": true,
          "internalType": "uint256",
          "name": "tokenId",
          "type": "uint256"
        }
      ],
      "name": "Transfer",
      "type": "event"
    },
    {
      "inputs": [
        {
          "internalType": "address",
          "name": "to",
          "type": "address"
        },
        {
          "internalType": "uint256",
          "name": "tokenId",
          "type": "uint256"
        }
      ],
      "name": "approve",
      "outputs": [],
      "stateMutability": "nonpayable",
      "type": "function"
    },
    {
      "inputs": [
        {
          "internalType": "address",
          "name": "owner",
          "type": "address"
        }
      ],
      "name": "balanceOf",
      "outputs": [
        {
          "internalType": "uint256",
          "name": "",
          "type": "uint256"
        }
      ],
      "stateMutability": "view",
      "type": "function",
      "constant": true
    },
    {
      "inputs": [
        {
          "internalType": "uint256",
          "name": "tokenId",
          "type": "uint256"
        }
      ],
      "name": "getApproved",
      "outputs": [
        {
          "internalType": "address",
          "name": "",
          "type": "address"
        }
      ],
      "stateMutability": "view",
      "type": "function",
      "constant": true
    },
    {
      "inputs": [
        {
          "internalType": "address",
          "name": "owner",
          "type": "address"
        },
        {
          "internalType": "address",
          "name": "operator",
          "type": "address"
        }
      ],
      "name": "isApprovedForAll",
      "outputs": [
        {
          "internalType": "bool",
          "name": "",
          "type": "bool"
        }
      ],
      "stateMutability": "view",
      "type": "function",
      "constant": true
    },
    {
      "inputs": [],
      "name": "name",
      "outputs": [
        {
          "internalType": "string",
          "name": "",
          "type": "string"
        }
      ],
      "stateMutability": "view",
      "type": "function",
      "constant": true
    },
    {
      "inputs": [
        {
          "internalType": "uint256",
          "name": "tokenId",
          "type": "uint256"
        }
      ],
      "name": "ownerOf",
      "outputs": [
        {
          "internalType": "address",
          "name": "",
          "type": "address"
        }
      ],
      "stateMutability": "view",
      "type": "function",
      "constant": true
    },
    {
      "inputs": [
        {
          "internalType": "address",
          "name": "from",
          "type": "address"
        },
        {
          "internalType": "address",
          "name": "to",
          "type": "address"
        },
        {
          "internalType": "uint256",
          "name": "tokenId",
          "type": "uint256"
        }
      ],
      "name": "safeTransferFrom",
      "outputs": [],
      "stateMutability": "nonpayable",
      "type": "function"
    },
    {
      "inputs": [
        {
          "internalType": "address",
          "name": "from",
          "type": "address"
        },
        {
          "internalType": "address",
          "name": "to",
          "type": "address"
        },
        {
          "internalType": "uint256",
          "name": "tokenId",
          "type": "uint256"
        },
        {
          "internalType": "bytes",
          "name": "_data",
          "type": "bytes"
        }
      ],
      "name": "safeTransferFrom",
      "outputs": [],
      "stateMutability": "nonpayable",
      "type": "function"
    },
    {
      "inputs": [
        {
          "internalType": "address",
          "name": "operator",
          "type": "address"
        },
        {
          "internalType": "bool",
          "name": "approved",
          "type": "bool"
        }
      ],
      "name": "setApprovalForAll",
      "outputs": [],
      "stateMutability": "nonpayable",
      "type": "function"
    },
    {
      "inputs": [
        {
          "internalType": "bytes4",
          "name": "interfaceId",
          "type": "bytes4"
        }
      ],
      "name": "supportsInterface",
      "outputs": [
        {
          "internalType": "bool",
          "name": "",
          "type": "bool"
        }
      ],
      "stateMutability": "view",
      "type": "function",
      "constant": true
    },
    {
      "inputs": [],
      "name": "symbol",
      "outputs": [
        {
          "internalType": "string",
          "name": "",
          "type": "string"
        }
      ],
      "stateMutability": "view",
      "type": "function",
      "constant": true
    },
    {
      "inputs": [
        {
          "internalType": "address",
          "name": "from",
          "type": "address"
        },
        {
          "internalType": "address",
          "name": "to",
          "type": "address"
        },
        {
          "internalType": "uint256",
          "name": "tokenId",
          "type": "uint256"
        }
      ],
      "name": "transferFrom",
      "outputs": [],
      "stateMutability": "nonpayable",
      "type": "function"
    },
    {
      "inputs": [
        {
          "internalType": "uint256",
          "name": "tokenId",
          "type": "uint256"
        }
      ],
      "name": "tokenURI",
      "outputs": [
        {
          "internalType": "string",
          "name": "",
          "type": "string"
        }
      ],
      "stateMutability": "view",
      "type": "function",
      "constant": true
    },
    {
      "inputs": [],
      "name": "current",
      "outputs": [
        {
          "internalType": "uint256",
          "name": "",
          "type": "uint256"
        }
      ],
      "stateMutability": "view",
      "type": "function",
      "constant": true
    },
    {
      "inputs": [
        {
          "internalType": "address",
          "name": "to",
          "type": "address"
        },
        {
          "internalType": "string",
          "name": "_tokenURI",
          "type": "string"
        }
      ],
      "name": "create",
      "outputs": [
        {
          "internalType": "uint256",
          "name": "",
          "type": "uint256"
        }
      ],
      "stateMutability": "nonpayable",
      "type": "function"
    }
  ],
  "bytecode": "0x60806040523480156200001157600080fd5b506040518060400160405280600881526020017f73736166794e46540000000000000000000000000000000000000000000000008152506040518060400160405280600381526020017f5346540000000000000000000000000000000000000000000000000000000000815250816000908051906020019062000096929190620000b8565b508060019080519060200190620000af929190620000b8565b505050620001cd565b828054620000c69062000197565b90600052602060002090601f016020900481019282620000ea576000855562000136565b82601f106200010557805160ff191683800117855562000136565b8280016001018555821562000136579182015b828111156200013557825182559160200191906001019062000118565b5b50905062000145919062000149565b5090565b5b80821115620001645760008160009055506001016200014a565b5090565b7f4e487b7100000000000000000000000000000000000000000000000000000000600052602260045260246000fd5b60006002820490506001821680620001b057607f821691505b60208210811415620001c757620001c662000168565b5b50919050565b61260280620001dd6000396000f3fe608060405234801561001057600080fd5b50600436106100f55760003560e01c806370a0823111610097578063a22cb46511610066578063a22cb46514610298578063b88d4fde146102b4578063c87b56dd146102d0578063e985e9c514610300576100f5565b806370a08231146101fc57806395d89b411461022c5780639fa6a6e31461024a578063a15ab08d14610268576100f5565b8063095ea7b3116100d3578063095ea7b31461017857806323b872dd1461019457806342842e0e146101b05780636352211e146101cc576100f5565b806301ffc9a7146100fa57806306fdde031461012a578063081812fc14610148575b600080fd5b610114600480360381019061010f9190611683565b610330565b60405161012191906116cb565b60405180910390f35b610132610412565b60405161013f919061177f565b60405180910390f35b610162600480360381019061015d91906117d7565b6104a4565b60405161016f9190611845565b60405180910390f35b610192600480360381019061018d919061188c565b610529565b005b6101ae60048036038101906101a991906118cc565b610641565b005b6101ca60048036038101906101c591906118cc565b6106a1565b005b6101e660048036038101906101e191906117d7565b6106c1565b6040516101f39190611845565b60405180910390f35b6102166004803603810190610211919061191f565b610773565b604051610223919061195b565b60405180910390f35b61023461082b565b604051610241919061177f565b60405180910390f35b6102526108bd565b60405161025f919061195b565b60405180910390f35b610282600480360381019061027d9190611aab565b6108d3565b60405161028f919061195b565b60405180910390f35b6102b260048036038101906102ad9190611b33565b61097b565b005b6102ce60048036038101906102c99190611c14565b610991565b005b6102ea60048036038101906102e591906117d7565b6109f3565b6040516102f7919061177f565b60405180910390f35b61031a60048036038101906103159190611c97565b610a98565b60405161032791906116cb565b60405180910390f35b60007f80ac58cd000000000000000000000000000000000000000000000000000000007bffffffffffffffffffffffffffffffffffffffffffffffffffffffff1916827bffffffffffffffffffffffffffffffffffffffffffffffffffffffff191614806103fb57507f5b5e139f000000000000000000000000000000000000000000000000000000007bffffffffffffffffffffffffffffffffffffffffffffffffffffffff1916827bffffffffffffffffffffffffffffffffffffffffffffffffffffffff1916145b8061040b575061040a82610b2c565b5b9050919050565b60606000805461042190611d06565b80601f016020809104026020016040519081016040528092919081815260200182805461044d90611d06565b801561049a5780601f1061046f5761010080835404028352916020019161049a565b820191906000526020600020905b81548152906001019060200180831161047d57829003601f168201915b5050505050905090565b60006104af82610b96565b6104ee576040517f08c379a00000000000000000000000000000000000000000000000000000000081526004016104e590611daa565b60405180910390fd5b6004600083815260200190815260200160002060009054906101000a900473ffffffffffffffffffffffffffffffffffffffff169050919050565b6000610534826106c1565b90508073ffffffffffffffffffffffffffffffffffffffff168373ffffffffffffffffffffffffffffffffffffffff1614156105a5576040517f08c379a000000000000000000000000000000000000000000000000000000000815260040161059c90611e3c565b60405180910390fd5b8073ffffffffffffffffffffffffffffffffffffffff166105c4610c02565b73ffffffffffffffffffffffffffffffffffffffff1614806105f357506105f2816105ed610c02565b610a98565b5b610632576040517f08c379a000000000000000000000000000000000000000000000000000000000815260040161062990611ece565b60405180910390fd5b61063c8383610c0a565b505050565b61065261064c610c02565b82610cc3565b610691576040517f08c379a000000000000000000000000000000000000000000000000000000000815260040161068890611f60565b60405180910390fd5b61069c838383610da1565b505050565b6106bc83838360405180602001604052806000815250610991565b505050565b6000806002600084815260200190815260200160002060009054906101000a900473ffffffffffffffffffffffffffffffffffffffff169050600073ffffffffffffffffffffffffffffffffffffffff168173ffffffffffffffffffffffffffffffffffffffff16141561076a576040517f08c379a000000000000000000000000000000000000000000000000000000000815260040161076190611ff2565b60405180910390fd5b80915050919050565b60008073ffffffffffffffffffffffffffffffffffffffff168273ffffffffffffffffffffffffffffffffffffffff1614156107e4576040517f08c379a00000000000000000000000000000000000000000000000000000000081526004016107db90612084565b60405180910390fd5b600360008373ffffffffffffffffffffffffffffffffffffffff1673ffffffffffffffffffffffffffffffffffffffff168152602001908152602001600020549050919050565b60606001805461083a90611d06565b80601f016020809104026020016040519081016040528092919081815260200182805461086690611d06565b80156108b35780601f10610888576101008083540402835291602001916108b3565b820191906000526020600020905b81548152906001019060200180831161089657829003601f168201915b5050505050905090565b6000806108ca6006611008565b90508091505090565b60006108df6006611016565b60006108eb6006611008565b90506108f7848261102c565b8260076000838152602001908152602001600020908051906020019061091e929190611574565b50306008600083815260200190815260200160002060006101000a81548173ffffffffffffffffffffffffffffffffffffffff021916908373ffffffffffffffffffffffffffffffffffffffff1602179055508091505092915050565b61098d610986610c02565b8383611206565b5050565b6109a261099c610c02565b83610cc3565b6109e1576040517f08c379a00000000000000000000000000000000000000000000000000000000081526004016109d890611f60565b60405180910390fd5b6109ed84848484611373565b50505050565b6060600760008381526020019081526020016000208054610a1390611d06565b80601f0160208091040260200160405190810160405280929190818152602001828054610a3f90611d06565b8015610a8c5780601f10610a6157610100808354040283529160200191610a8c565b820191906000526020600020905b815481529060010190602001808311610a6f57829003601f168201915b50505050509050919050565b6000600560008473ffffffffffffffffffffffffffffffffffffffff1673ffffffffffffffffffffffffffffffffffffffff16815260200190815260200160002060008373ffffffffffffffffffffffffffffffffffffffff1673ffffffffffffffffffffffffffffffffffffffff16815260200190815260200160002060009054906101000a900460ff16905092915050565b60007f01ffc9a7000000000000000000000000000000000000000000000000000000007bffffffffffffffffffffffffffffffffffffffffffffffffffffffff1916827bffffffffffffffffffffffffffffffffffffffffffffffffffffffff1916149050919050565b60008073ffffffffffffffffffffffffffffffffffffffff166002600084815260200190815260200160002060009054906101000a900473ffffffffffffffffffffffffffffffffffffffff1673ffffffffffffffffffffffffffffffffffffffff1614159050919050565b600033905090565b816004600083815260200190815260200160002060006101000a81548173ffffffffffffffffffffffffffffffffffffffff021916908373ffffffffffffffffffffffffffffffffffffffff160217905550808273ffffffffffffffffffffffffffffffffffffffff16610c7d836106c1565b73ffffffffffffffffffffffffffffffffffffffff167f8c5be1e5ebec7d5bd14f71427d1e84f3dd0314c0f7b2291e5b200ac8c7c3b92560405160405180910390a45050565b6000610cce82610b96565b610d0d576040517f08c379a0000000000000000000000000000000000000000000000000000000008152600401610d0490612116565b60405180910390fd5b6000610d18836106c1565b90508073ffffffffffffffffffffffffffffffffffffffff168473ffffffffffffffffffffffffffffffffffffffff161480610d5a5750610d598185610a98565b5b80610d9857508373ffffffffffffffffffffffffffffffffffffffff16610d80846104a4565b73ffffffffffffffffffffffffffffffffffffffff16145b91505092915050565b8273ffffffffffffffffffffffffffffffffffffffff16610dc1826106c1565b73ffffffffffffffffffffffffffffffffffffffff1614610e17576040517f08c379a0000000000000000000000000000000000000000000000000000000008152600401610e0e906121a8565b60405180910390fd5b600073ffffffffffffffffffffffffffffffffffffffff168273ffffffffffffffffffffffffffffffffffffffff161415610e87576040517f08c379a0000000000000000000000000000000000000000000000000000000008152600401610e7e9061223a565b60405180910390fd5b610e928383836113cf565b610e9d600082610c0a565b6001600360008573ffffffffffffffffffffffffffffffffffffffff1673ffffffffffffffffffffffffffffffffffffffff1681526020019081526020016000206000828254610eed9190612289565b925050819055506001600360008473ffffffffffffffffffffffffffffffffffffffff1673ffffffffffffffffffffffffffffffffffffffff1681526020019081526020016000206000828254610f4491906122bd565b92505081905550816002600083815260200190815260200160002060006101000a81548173ffffffffffffffffffffffffffffffffffffffff021916908373ffffffffffffffffffffffffffffffffffffffff160217905550808273ffffffffffffffffffffffffffffffffffffffff168473ffffffffffffffffffffffffffffffffffffffff167fddf252ad1be2c89b69c2b068fc378daa952ba7f163c4a11628f55a4df523b3ef60405160405180910390a46110038383836113d4565b505050565b600081600001549050919050565b6001816000016000828254019250508190555050565b600073ffffffffffffffffffffffffffffffffffffffff168273ffffffffffffffffffffffffffffffffffffffff16141561109c576040517f08c379a00000000000000000000000000000000000000000000000000000000081526004016110939061235f565b60405180910390fd5b6110a581610b96565b156110e5576040517f08c379a00000000000000000000000000000000000000000000000000000000081526004016110dc906123cb565b60405180910390fd5b6110f1600083836113cf565b6001600360008473ffffffffffffffffffffffffffffffffffffffff1673ffffffffffffffffffffffffffffffffffffffff168152602001908152602001600020600082825461114191906122bd565b92505081905550816002600083815260200190815260200160002060006101000a81548173ffffffffffffffffffffffffffffffffffffffff021916908373ffffffffffffffffffffffffffffffffffffffff160217905550808273ffffffffffffffffffffffffffffffffffffffff16600073ffffffffffffffffffffffffffffffffffffffff167fddf252ad1be2c89b69c2b068fc378daa952ba7f163c4a11628f55a4df523b3ef60405160405180910390a4611202600083836113d4565b5050565b8173ffffffffffffffffffffffffffffffffffffffff168373ffffffffffffffffffffffffffffffffffffffff161415611275576040517f08c379a000000000000000000000000000000000000000000000000000000000815260040161126c90612437565b60405180910390fd5b80600560008573ffffffffffffffffffffffffffffffffffffffff1673ffffffffffffffffffffffffffffffffffffffff16815260200190815260200160002060008473ffffffffffffffffffffffffffffffffffffffff1673ffffffffffffffffffffffffffffffffffffffff16815260200190815260200160002060006101000a81548160ff0219169083151502179055508173ffffffffffffffffffffffffffffffffffffffff168373ffffffffffffffffffffffffffffffffffffffff167f17307eab39ab6107e8899845ad3d59bd9653f200f220920489ca2b5937696c318360405161136691906116cb565b60405180910390a3505050565b61137e848484610da1565b61138a848484846113d9565b6113c9576040517f08c379a00000000000000000000000000000000000000000000000000000000081526004016113c0906124c9565b60405180910390fd5b50505050565b505050565b505050565b60006113fa8473ffffffffffffffffffffffffffffffffffffffff16611561565b15611554578373ffffffffffffffffffffffffffffffffffffffff1663150b7a02611423610c02565b8786866040518563ffffffff1660e01b8152600401611445949392919061253e565b6020604051808303816000875af192505050801561148157506040513d601f19601f8201168201806040525081019061147e919061259f565b60015b611504573d80600081146114b1576040519150601f19603f3d011682016040523d82523d6000602084013e6114b6565b606091505b506000815114156114fc576040517f08c379a00000000000000000000000000000000000000000000000000000000081526004016114f3906124c9565b60405180910390fd5b805181602001fd5b63150b7a0260e01b7bffffffffffffffffffffffffffffffffffffffffffffffffffffffff1916817bffffffffffffffffffffffffffffffffffffffffffffffffffffffff191614915050611559565b600190505b949350505050565b600080823b905060008111915050919050565b82805461158090611d06565b90600052602060002090601f0160209004810192826115a257600085556115e9565b82601f106115bb57805160ff19168380011785556115e9565b828001600101855582156115e9579182015b828111156115e85782518255916020019190600101906115cd565b5b5090506115f691906115fa565b5090565b5b808211156116135760008160009055506001016115fb565b5090565b6000604051905090565b600080fd5b600080fd5b60007fffffffff0000000000000000000000000000000000000000000000000000000082169050919050565b6116608161162b565b811461166b57600080fd5b50565b60008135905061167d81611657565b92915050565b60006020828403121561169957611698611621565b5b60006116a78482850161166e565b91505092915050565b60008115159050919050565b6116c5816116b0565b82525050565b60006020820190506116e060008301846116bc565b92915050565b600081519050919050565b600082825260208201905092915050565b60005b83811015611720578082015181840152602081019050611705565b8381111561172f576000848401525b50505050565b6000601f19601f8301169050919050565b6000611751826116e6565b61175b81856116f1565b935061176b818560208601611702565b61177481611735565b840191505092915050565b600060208201905081810360008301526117998184611746565b905092915050565b6000819050919050565b6117b4816117a1565b81146117bf57600080fd5b50565b6000813590506117d1816117ab565b92915050565b6000602082840312156117ed576117ec611621565b5b60006117fb848285016117c2565b91505092915050565b600073ffffffffffffffffffffffffffffffffffffffff82169050919050565b600061182f82611804565b9050919050565b61183f81611824565b82525050565b600060208201905061185a6000830184611836565b92915050565b61186981611824565b811461187457600080fd5b50565b60008135905061188681611860565b92915050565b600080604083850312156118a3576118a2611621565b5b60006118b185828601611877565b92505060206118c2858286016117c2565b9150509250929050565b6000806000606084860312156118e5576118e4611621565b5b60006118f386828701611877565b935050602061190486828701611877565b9250506040611915868287016117c2565b9150509250925092565b60006020828403121561193557611934611621565b5b600061194384828501611877565b91505092915050565b611955816117a1565b82525050565b6000602082019050611970600083018461194c565b92915050565b600080fd5b600080fd5b7f4e487b7100000000000000000000000000000000000000000000000000000000600052604160045260246000fd5b6119b882611735565b810181811067ffffffffffffffff821117156119d7576119d6611980565b5b80604052505050565b60006119ea611617565b90506119f682826119af565b919050565b600067ffffffffffffffff821115611a1657611a15611980565b5b611a1f82611735565b9050602081019050919050565b82818337600083830152505050565b6000611a4e611a49846119fb565b6119e0565b905082815260208101848484011115611a6a57611a6961197b565b5b611a75848285611a2c565b509392505050565b600082601f830112611a9257611a91611976565b5b8135611aa2848260208601611a3b565b91505092915050565b60008060408385031215611ac257611ac1611621565b5b6000611ad085828601611877565b925050602083013567ffffffffffffffff811115611af157611af0611626565b5b611afd85828601611a7d565b9150509250929050565b611b10816116b0565b8114611b1b57600080fd5b50565b600081359050611b2d81611b07565b92915050565b60008060408385031215611b4a57611b49611621565b5b6000611b5885828601611877565b9250506020611b6985828601611b1e565b9150509250929050565b600067ffffffffffffffff821115611b8e57611b8d611980565b5b611b9782611735565b9050602081019050919050565b6000611bb7611bb284611b73565b6119e0565b905082815260208101848484011115611bd357611bd261197b565b5b611bde848285611a2c565b509392505050565b600082601f830112611bfb57611bfa611976565b5b8135611c0b848260208601611ba4565b91505092915050565b60008060008060808587031215611c2e57611c2d611621565b5b6000611c3c87828801611877565b9450506020611c4d87828801611877565b9350506040611c5e878288016117c2565b925050606085013567ffffffffffffffff811115611c7f57611c7e611626565b5b611c8b87828801611be6565b91505092959194509250565b60008060408385031215611cae57611cad611621565b5b6000611cbc85828601611877565b9250506020611ccd85828601611877565b9150509250929050565b7f4e487b7100000000000000000000000000000000000000000000000000000000600052602260045260246000fd5b60006002820490506001821680611d1e57607f821691505b60208210811415611d3257611d31611cd7565b5b50919050565b7f4552433732313a20617070726f76656420717565727920666f72206e6f6e657860008201527f697374656e7420746f6b656e0000000000000000000000000000000000000000602082015250565b6000611d94602c836116f1565b9150611d9f82611d38565b604082019050919050565b60006020820190508181036000830152611dc381611d87565b9050919050565b7f4552433732313a20617070726f76616c20746f2063757272656e74206f776e6560008201527f7200000000000000000000000000000000000000000000000000000000000000602082015250565b6000611e266021836116f1565b9150611e3182611dca565b604082019050919050565b60006020820190508181036000830152611e5581611e19565b9050919050565b7f4552433732313a20617070726f76652063616c6c6572206973206e6f74206f7760008201527f6e6572206e6f7220617070726f76656420666f7220616c6c0000000000000000602082015250565b6000611eb86038836116f1565b9150611ec382611e5c565b604082019050919050565b60006020820190508181036000830152611ee781611eab565b9050919050565b7f4552433732313a207472616e736665722063616c6c6572206973206e6f74206f60008201527f776e6572206e6f7220617070726f766564000000000000000000000000000000602082015250565b6000611f4a6031836116f1565b9150611f5582611eee565b604082019050919050565b60006020820190508181036000830152611f7981611f3d565b9050919050565b7f4552433732313a206f776e657220717565727920666f72206e6f6e657869737460008201527f656e7420746f6b656e0000000000000000000000000000000000000000000000602082015250565b6000611fdc6029836116f1565b9150611fe782611f80565b604082019050919050565b6000602082019050818103600083015261200b81611fcf565b9050919050565b7f4552433732313a2062616c616e636520717565727920666f7220746865207a6560008201527f726f206164647265737300000000000000000000000000000000000000000000602082015250565b600061206e602a836116f1565b915061207982612012565b604082019050919050565b6000602082019050818103600083015261209d81612061565b9050919050565b7f4552433732313a206f70657261746f7220717565727920666f72206e6f6e657860008201527f697374656e7420746f6b656e0000000000000000000000000000000000000000602082015250565b6000612100602c836116f1565b915061210b826120a4565b604082019050919050565b6000602082019050818103600083015261212f816120f3565b9050919050565b7f4552433732313a207472616e736665722066726f6d20696e636f72726563742060008201527f6f776e6572000000000000000000000000000000000000000000000000000000602082015250565b60006121926025836116f1565b915061219d82612136565b604082019050919050565b600060208201905081810360008301526121c181612185565b9050919050565b7f4552433732313a207472616e7366657220746f20746865207a65726f2061646460008201527f7265737300000000000000000000000000000000000000000000000000000000602082015250565b60006122246024836116f1565b915061222f826121c8565b604082019050919050565b6000602082019050818103600083015261225381612217565b9050919050565b7f4e487b7100000000000000000000000000000000000000000000000000000000600052601160045260246000fd5b6000612294826117a1565b915061229f836117a1565b9250828210156122b2576122b161225a565b5b828203905092915050565b60006122c8826117a1565b91506122d3836117a1565b9250827fffffffffffffffffffffffffffffffffffffffffffffffffffffffffffffffff038211156123085761230761225a565b5b828201905092915050565b7f4552433732313a206d696e7420746f20746865207a65726f2061646472657373600082015250565b60006123496020836116f1565b915061235482612313565b602082019050919050565b600060208201905081810360008301526123788161233c565b9050919050565b7f4552433732313a20746f6b656e20616c7265616479206d696e74656400000000600082015250565b60006123b5601c836116f1565b91506123c08261237f565b602082019050919050565b600060208201905081810360008301526123e4816123a8565b9050919050565b7f4552433732313a20617070726f766520746f2063616c6c657200000000000000600082015250565b60006124216019836116f1565b915061242c826123eb565b602082019050919050565b6000602082019050818103600083015261245081612414565b9050919050565b7f4552433732313a207472616e7366657220746f206e6f6e20455243373231526560008201527f63656976657220696d706c656d656e7465720000000000000000000000000000602082015250565b60006124b36032836116f1565b91506124be82612457565b604082019050919050565b600060208201905081810360008301526124e2816124a6565b9050919050565b600081519050919050565b600082825260208201905092915050565b6000612510826124e9565b61251a81856124f4565b935061252a818560208601611702565b61253381611735565b840191505092915050565b60006080820190506125536000830187611836565b6125606020830186611836565b61256d604083018561194c565b818103606083015261257f8184612505565b905095945050505050565b60008151905061259981611657565b92915050565b6000602082840312156125b5576125b4611621565b5b60006125c38482850161258a565b9150509291505056fea2646970667358221220a7326cc75f8ec4bc4fbdb7aceef289f0afe8316940a6abc857c208b03b81ba6c64736f6c634300080a0033",
  "immutableReferences": {},
  "source": "// SPDX-License-Identifier: MIT\n// OpenZeppelin Contracts v4.4.1 (utils/Counters.sol)\n\npragma solidity ^0.8.4;\n\nimport \"./token/ERC721/ERC721.sol\";\nimport \"@openzeppelin/contracts/utils/Counters.sol\";\n\n// import \"../node_modules/@openzeppelin/contracts/utils/Counters.sol\";\n\n/**\n * PJT  -  2) NFT Creator \n *         .\n */\n// contract SsafyNFT is ERC721 {\n//     uint256 private _tokenIds;\n//     mapping(uint256 => string) tokenURIs;\n\n//     constructor() ERC721(\"ssafyNFT\", \"SFT\") {\n//         // TODO\n//     }\n\n//     function current() public view returns (uint256) {\n//         return _tokenIds;\n//     }\n// //   https://blog.logrocket.com/create-nft-minter-moralis-solidity-next-js/\n\n// // https://www.youtube.com/watch?v=TYezN5r228U\n\n//     function tokenURI(uint256 tokenId) public view override(ERC721) returns (string memory) {\n//         // TODO\n//         return tokenURIs[tokenId];\n//     }\n\n//     function create(address to, string memory _tokenURI) public returns (uint256) {\n//         // TODO\n\n//         uint256 newItemid = uint256(keccak256(\"_tokenURI\"));\n//         _mint(to, newItemid);\n//         tokenURIs[newItemid] = _tokenURI;\n\n//         return newItemid;\n//     }\n// }\n\n/**\n * PJT  -  2) NFT Creator \n *         .\n */\ncontract SsafyNFT is ERC721 {\n    using Counters for Counters.Counter;\n    Counters.Counter private _tokenIds;\n    mapping(uint256 => string) tokenURIs;\n    mapping(uint256 => address) contractAddress;\n\n    constructor() ERC721(\"ssafyNFT\", \"SFT\") {\n        // TODO\n    }\n\n    //   https://blog.logrocket.com/create-nft-minter-moralis-solidity-next-js/\n\n    // https://www.youtube.com/watch?v=TYezN5r228U\n\n    function tokenURI(uint256 tokenId)\n        public\n        view\n        override\n        returns (string memory)\n    {\n        // TODO\n        return tokenURIs[tokenId];\n    }\n\n    function current() public view returns (uint256) {\n        // return _tokenIds;\n        // _tokenIds = Counters._value;\n        uint256 tokenid = _tokenIds.current();\n        return tokenid;\n    }\n\n    function create(address to, string memory _tokenURI)\n        public\n        returns (uint256)\n    {\n        // TODO\n        //   NFT  ID  .\n        _tokenIds.increment();\n\n        //    NFT  ID\n        uint256 newItemid = _tokenIds.current();\n\n        //     NFT ID \n        _mint(to, newItemid);\n\n        // nft   \n        // _mint(msg.sender, newItemid);\n\n        //  NFTID NFT JSON URI  URI \n        tokenURIs[newItemid] = _tokenURI;\n        contractAddress[newItemid] = address(this);\n        return newItemid;\n    }\n\n    // function getContractAddress(uint256 _newItemid) public view returns(address){\n    //     return contractAddress[_newItemid];\n    // }\n}\n",
  "sourcePath": "C:\\Users\\SSAFY\\Desktop\\SSAFY\\2\\\\S06P22E205\\UNIQUE\\frontend\\smart-contracts\\contracts\\SsafyNFT.sol",
  "compiler": {
    "name": "solc",
    "version": "0.8.10+commit.fc410830.Emscripten.clang"
  },
  "schemaVersion": "3.4.6",
  "updatedAt": "2022-04-06T16:02:52.209Z",
  "networkType": "ethereum",
  "devdoc": {
    "kind": "dev",
    "methods": {
      "approve(address,uint256)": {
        "details": "See {IERC721-approve}."
      },
      "balanceOf(address)": {
        "details": "See {IERC721-balanceOf}."
      },
      "getApproved(uint256)": {
        "details": "See {IERC721-getApproved}."
      },
      "isApprovedForAll(address,address)": {
        "details": "See {IERC721-isApprovedForAll}."
      },
      "name()": {
        "details": "See {IERC721Metadata-name}."
      },
      "ownerOf(uint256)": {
        "details": "See {IERC721-ownerOf}."
      },
      "safeTransferFrom(address,address,uint256)": {
        "details": "See {IERC721-safeTransferFrom}."
      },
      "safeTransferFrom(address,address,uint256,bytes)": {
        "details": "See {IERC721-safeTransferFrom}."
      },
      "setApprovalForAll(address,bool)": {
        "details": "See {IERC721-setApprovalForAll}."
      },
      "supportsInterface(bytes4)": {
        "details": "See {IERC165-supportsInterface}."
      },
      "symbol()": {
        "details": "See {IERC721Metadata-symbol}."
      },
      "tokenURI(uint256)": {
        "details": "See {IERC721Metadata-tokenURI}."
      },
      "transferFrom(address,address,uint256)": {
        "details": "See {IERC721-transferFrom}."
      }
    },
    "version": 1
  },
  "userdoc": {
    "kind": "user",
    "methods": {
      "safeTransferFrom(address,address,uint256)": {
        "notice": "/**"
      }
    },
    "notice": "PJT  -  2) NFT Creator          .",
    "version": 1
  }
}